{
  "contractName": "SimpleContract",
  "abi": [
    {
      "inputs": [],
      "payable": false,
      "stateMutability": "nonpayable",
      "type": "constructor"
    },
    {
      "anonymous": false,
      "inputs": [
        {
          "indexed": false,
          "internalType": "address",
          "name": "rep",
          "type": "address"
        },
        {
          "indexed": false,
          "internalType": "string",
          "name": "name",
          "type": "string"
        },
        {
          "indexed": false,
          "internalType": "string",
          "name": "category",
          "type": "string"
        },
        {
          "indexed": false,
          "internalType": "string",
          "name": "desciption",
          "type": "string"
        }
      ],
      "name": "CharityCreated",
      "type": "event"
    },
    {
      "anonymous": false,
      "inputs": [
        {
          "indexed": false,
          "internalType": "string",
          "name": "name",
          "type": "string"
        }
      ],
      "name": "VotedCategory",
      "type": "event"
    },
    {
      "anonymous": false,
      "inputs": [
        {
          "indexed": false,
          "internalType": "address",
          "name": "donor",
          "type": "address"
        },
        {
          "indexed": false,
          "internalType": "uint256",
          "name": "amount",
          "type": "uint256"
        }
      ],
      "name": "donationReceived",
      "type": "event"
    },
    {
      "anonymous": false,
      "inputs": [
        {
          "indexed": false,
          "internalType": "address",
          "name": "recipient",
          "type": "address"
        }
      ],
      "name": "donationSentToTarget",
      "type": "event"
    },
    {
      "constant": true,
      "inputs": [],
      "name": "funds",
      "outputs": [
        {
          "internalType": "uint256",
          "name": "",
          "type": "uint256"
        }
      ],
      "payable": false,
      "stateMutability": "view",
      "type": "function"
    },
    {
      "constant": true,
      "inputs": [],
      "name": "voteCount",
      "outputs": [
        {
          "internalType": "uint256",
          "name": "",
          "type": "uint256"
        }
      ],
      "payable": false,
      "stateMutability": "view",
      "type": "function"
    },
    {
      "constant": true,
      "inputs": [],
      "name": "getVotesLen",
      "outputs": [
        {
          "internalType": "address",
          "name": "",
          "type": "address"
        }
      ],
      "payable": false,
      "stateMutability": "view",
      "type": "function"
    },
    {
      "constant": false,
      "inputs": [
        {
          "internalType": "string",
          "name": "cat",
          "type": "string"
        }
      ],
      "name": "vote",
      "outputs": [],
      "payable": false,
      "stateMutability": "nonpayable",
      "type": "function"
    },
    {
      "constant": true,
      "inputs": [
        {
          "internalType": "address",
          "name": "sender",
          "type": "address"
        }
      ],
      "name": "checkVoted",
      "outputs": [
        {
          "internalType": "bool",
          "name": "",
          "type": "bool"
        }
      ],
      "payable": false,
      "stateMutability": "view",
      "type": "function"
    },
    {
      "constant": true,
      "inputs": [
        {
          "internalType": "string",
          "name": "a",
          "type": "string"
        },
        {
          "internalType": "string",
          "name": "b",
          "type": "string"
        }
      ],
      "name": "compareStrings",
      "outputs": [
        {
          "internalType": "bool",
          "name": "",
          "type": "bool"
        }
      ],
      "payable": false,
      "stateMutability": "pure",
      "type": "function"
    },
    {
      "constant": true,
      "inputs": [
        {
          "internalType": "string",
          "name": "cat",
          "type": "string"
        }
      ],
      "name": "getVoteCountByCat",
      "outputs": [
        {
          "internalType": "uint256",
          "name": "",
          "type": "uint256"
        }
      ],
      "payable": false,
      "stateMutability": "view",
      "type": "function"
    },
    {
      "constant": false,
      "inputs": [
        {
          "internalType": "address payable",
          "name": "rep",
          "type": "address"
        },
        {
          "internalType": "string",
          "name": "name",
          "type": "string"
        },
        {
          "internalType": "string",
          "name": "category",
          "type": "string"
        },
        {
          "internalType": "string",
          "name": "desc",
          "type": "string"
        }
      ],
      "name": "createCharity",
      "outputs": [],
      "payable": false,
      "stateMutability": "nonpayable",
      "type": "function"
    },
    {
      "constant": false,
      "inputs": [],
      "name": "donate",
      "outputs": [],
      "payable": true,
      "stateMutability": "payable",
      "type": "function"
    },
    {
      "constant": false,
      "inputs": [
        {
          "internalType": "string",
          "name": "charity",
          "type": "string"
        },
        {
          "internalType": "uint256",
          "name": "amount",
          "type": "uint256"
        }
      ],
      "name": "transfer",
      "outputs": [
        {
          "internalType": "bool",
          "name": "",
          "type": "bool"
        }
      ],
      "payable": true,
      "stateMutability": "payable",
      "type": "function"
    },
    {
      "constant": false,
      "inputs": [],
      "name": "allocateFunds",
      "outputs": [],
      "payable": false,
      "stateMutability": "nonpayable",
      "type": "function"
    }
  ],
  "bytecode": "0x608060405260008055600060015534801561001957600080fd5b506114a0806100296000396000f3fe60806040526004361061009c5760003560e01c8063c89f2ce411610064578063c89f2ce4146103e0578063d927bbc81461040b578063dba1a5f91461055b578063eb08d94914610572578063ed88c68e1461064e578063fc36e15b146106585761009c565b806312cb70c7146100a157806328b444711461017e578063ad12a2d5146101e7578063bed34bba1461023e578063c6384071146103b5575b600080fd5b610164600480360360408110156100b757600080fd5b81019080803590602001906401000000008111156100d457600080fd5b8201836020820111156100e657600080fd5b8035906020019184600183028401116401000000008311171561010857600080fd5b91908080601f016020809104026020016040519081016040528093929190818152602001838380828437600081840152601f19601f82011690508083019250505050505050919291929080359060200190929190505050610720565b604051808215151515815260200191505060405180910390f35b34801561018a57600080fd5b506101cd600480360360208110156101a157600080fd5b81019080803573ffffffffffffffffffffffffffffffffffffffff1690602001909291905050506109b1565b604051808215151515815260200191505060405180910390f35b3480156101f357600080fd5b506101fc610a5a565b604051808273ffffffffffffffffffffffffffffffffffffffff1673ffffffffffffffffffffffffffffffffffffffff16815260200191505060405180910390f35b34801561024a57600080fd5b5061039b6004803603604081101561026157600080fd5b810190808035906020019064010000000081111561027e57600080fd5b82018360208201111561029057600080fd5b803590602001918460018302840111640100000000831117156102b257600080fd5b91908080601f016020809104026020016040519081016040528093929190818152602001838380828437600081840152601f19601f8201169050808301925050505050505091929192908035906020019064010000000081111561031557600080fd5b82018360208201111561032757600080fd5b8035906020019184600183028401116401000000008311171561034957600080fd5b91908080601f016020809104026020016040519081016040528093929190818152602001838380828437600081840152601f19601f820116905080830192505050505050509192919290505050610a62565b604051808215151515815260200191505060405180910390f35b3480156103c157600080fd5b506103ca610b51565b6040518082815260200191505060405180910390f35b3480156103ec57600080fd5b506103f5610b57565b6040518082815260200191505060405180910390f35b34801561041757600080fd5b506105596004803603608081101561042e57600080fd5b81019080803573ffffffffffffffffffffffffffffffffffffffff1690602001909291908035906020019064010000000081111561046b57600080fd5b82018360208201111561047d57600080fd5b8035906020019184600183028401116401000000008311171561049f57600080fd5b9091929391929390803590602001906401000000008111156104c057600080fd5b8201836020820111156104d257600080fd5b803590602001918460018302840111640100000000831117156104f457600080fd5b90919293919293908035906020019064010000000081111561051557600080fd5b82018360208201111561052757600080fd5b8035906020019184600183028401116401000000008311171561054957600080fd5b9091929391929390505050610b5d565b005b34801561056757600080fd5b50610570610e36565b005b34801561057e57600080fd5b506106386004803603602081101561059557600080fd5b81019080803590602001906401000000008111156105b257600080fd5b8201836020820111156105c457600080fd5b803590602001918460018302840111640100000000831117156105e657600080fd5b91908080601f016020809104026020016040519081016040528093929190818152602001838380828437600081840152601f19601f8201169050808301925050505050505091929192905050506110ff565b6040518082815260200191505060405180910390f35b6106566111fe565b005b34801561066457600080fd5b5061071e6004803603602081101561067b57600080fd5b810190808035906020019064010000000081111561069857600080fd5b8201836020820111156106aa57600080fd5b803590602001918460018302840111640100000000831117156106cc57600080fd5b91908080601f016020809104026020016040519081016040528093929190818152602001838380828437600081840152601f19601f820116905080830192505050505050509192919290505050611257565b005b60008060008090505b600380549050811015610859576107f66003828154811061074657fe5b90600052602060002090600402016001018054600181600116156101000203166002900480601f0160208091040260200160405190810160405280929190818152602001828054600181600116156101000203166002900480156107eb5780601f106107c0576101008083540402835291602001916107eb565b820191906000526020600020905b8154815290600101906020018083116107ce57829003601f168201915b505050505086610a62565b15610841576003818154811061080857fe5b906000526020600020906004020160000160009054906101000a900473ffffffffffffffffffffffffffffffffffffffff16915061084c565b6000925050506109ab565b8080600101915050610729565b508073ffffffffffffffffffffffffffffffffffffffff163373ffffffffffffffffffffffffffffffffffffffff16141561089357600080fd5b8073ffffffffffffffffffffffffffffffffffffffff166108fc849081150290604051600060405180830381858888f19350505050156109a5577f8fbbe42dea405509f67561a1e01dc5de493250e57e942ab5f20e40bad9ccaa5c81604051808273ffffffffffffffffffffffffffffffffffffffff1673ffffffffffffffffffffffffffffffffffffffff16815260200191505060405180910390a17fe2639ef551ad89950da1145fe1fd600e818336d6e8aa88426efe387c49accebb3384604051808373ffffffffffffffffffffffffffffffffffffffff1673ffffffffffffffffffffffffffffffffffffffff1681526020018281526020019250505060405180910390a160019150506109ab565b60009150505b92915050565b600080600090505b600280549050811015610a4f578273ffffffffffffffffffffffffffffffffffffffff16600282815481106109ea57fe5b906000526020600020906002020160010160009054906101000a900473ffffffffffffffffffffffffffffffffffffffff1673ffffffffffffffffffffffffffffffffffffffff161415610a42576001915050610a55565b80806001019150506109b9565b50600090505b919050565b600033905090565b6000816040516020018082805190602001908083835b60208310610a9b5780518252602082019150602081019050602083039250610a78565b6001836020036101000a03801982511681845116808217855250505050505090500191505060405160208183030381529060405280519060200120836040516020018082805190602001908083835b60208310610b0d5780518252602082019150602081019050602083039250610aea565b6001836020036101000a0380198251168184511680821785525050505050509050019150506040516020818303038152906040528051906020012014905092915050565b60005481565b60015481565b600360405180608001604052808973ffffffffffffffffffffffffffffffffffffffff16815260200188888080601f016020809104026020016040519081016040528093929190818152602001838380828437600081840152601f19601f82011690508083019250505050505050815260200186868080601f016020809104026020016040519081016040528093929190818152602001838380828437600081840152601f19601f82011690508083019250505050505050815260200184848080601f016020809104026020016040519081016040528093929190818152602001838380828437600081840152601f19601f820116905080830192505050505050508152509080600181540180825580915050906001820390600052602060002090600402016000909192909190915060008201518160000160006101000a81548173ffffffffffffffffffffffffffffffffffffffff021916908373ffffffffffffffffffffffffffffffffffffffff1602179055506020820151816001019080519060200190610cf09291906113c6565b506040820151816002019080519060200190610d0d9291906113c6565b506060820151816003019080519060200190610d2a9291906113c6565b505050507f9d149607b35531090b5116679ec7a10b37268e2ba17e04d51a298d7ee87cd03287878787878787604051808873ffffffffffffffffffffffffffffffffffffffff1673ffffffffffffffffffffffffffffffffffffffff16815260200180602001806020018060200184810384528a8a82818152602001925080828437600081840152601f19601f8201169050808301925050508481038352888882818152602001925080828437600081840152601f19601f8201169050808301925050508481038252868682818152602001925080828437600081840152601f19601f8201169050808301925050509a505050505050505050505060405180910390a150505050505050565b6000809050600080905060008090505b6003805490508110156110f2576000925060008090505b600280549050811015610ffb57610fe060028281548110610e7a57fe5b90600052602060002090600202016000018054600181600116156101000203166002900480601f016020809104026020016040519081016040528092919081815260200182805460018160011615610100020316600290048015610f1f5780601f10610ef457610100808354040283529160200191610f1f565b820191906000526020600020905b815481529060010190602001808311610f0257829003601f168201915b505050505060038481548110610f3157fe5b90600052602060002090600402016003018054600181600116156101000203166002900480601f016020809104026020016040519081016040528092919081815260200182805460018160011615610100020316600290048015610fd65780601f10610fab57610100808354040283529160200191610fd6565b820191906000526020600020905b815481529060010190602001808311610fb957829003601f168201915b5050505050610a62565b15610fee5783806001019450505b8080600101915050610e5d565b50600083141561100e5760019150611020565b600280549050838161101c57fe5b0491505b6110e46003828154811061103057fe5b90600052602060002090600402016001018054600181600116156101000203166002900480601f0160208091040260200160405190810160405280929190818152602001828054600181600116156101000203166002900480156110d55780601f106110aa576101008083540402835291602001916110d5565b820191906000526020600020905b8154815290600101906020018083116110b857829003601f168201915b50505050506001548402610720565b508080600101915050610e46565b5060006001819055505050565b6000806000905060008090505b6002805490508110156111f4576111d96002828154811061112957fe5b90600052602060002090600202016000018054600181600116156101000203166002900480601f0160208091040260200160405190810160405280929190818152602001828054600181600116156101000203166002900480156111ce5780601f106111a3576101008083540402835291602001916111ce565b820191906000526020600020905b8154815290600101906020018083116111b157829003601f168201915b505050505085610a62565b156111e75781806001019250505b808060010191505061110c565b5080915050919050565b346001600082825401925050819055503373ffffffffffffffffffffffffffffffffffffffff166108fc349081150290604051600060405180830381858888f19350505050158015611254573d6000803e3d6000fd5b50565b600260405180604001604052808381526020013373ffffffffffffffffffffffffffffffffffffffff168152509080600181540180825580915050906001820390600052602060002090600202016000909192909190915060008201518160000190805190602001906112cb9291906113c6565b5060208201518160010160006101000a81548173ffffffffffffffffffffffffffffffffffffffff021916908373ffffffffffffffffffffffffffffffffffffffff16021790555050505060008081548092919060010191905055507fea223c57a663c51378a654cdbe24d9552b38ef9ff63e2ecac25e94f409b53496816040518080602001828103825283818151815260200191508051906020019080838360005b8381101561138957808201518184015260208101905061136e565b50505050905090810190601f1680156113b65780820380516001836020036101000a031916815260200191505b509250505060405180910390a150565b828054600181600116156101000203166002900490600052602060002090601f016020900481019282601f1061140757805160ff1916838001178555611435565b82800160010185558215611435579182015b82811115611434578251825591602001919060010190611419565b5b5090506114429190611446565b5090565b61146891905b8082111561146457600081600090555060010161144c565b5090565b9056fea265627a7a723158202780274abf91cc04410b1ee053474525343f6b98d0c596b37d1a749bd1701c2064736f6c63430005100032",
  "source": "pragma solidity ^0.5.16;\n\ncontract SimpleContract {\n  uint public voteCount = 0;\n  uint public funds = 0;\n\n  struct Vote {\n    string category;\n    address voter;\n  }\n  \n  struct Charity {\n    address payable rep;\n    string name;\n    string description;\n    string category;\n  }\n\n  //mapping(address=>uint) public donors;\n\n  event CharityCreated(\n    address rep,\n    string name,\n    string category,\n    string desciption\n  );\n\n  event donationReceived(address donor, uint amount);\n  event donationSentToTarget(address recipient);\n\n  // user -> Category\n  //mapping(address=>Category) public votes;\n  Vote[] private votes;\n\n  Charity[] private charities;\n\n  event VotedCategory(\n    string name \n  );\n\n  constructor() public {\n  }\n\n  function getVotesLen() public view returns (address) {\n    return msg.sender;\n  }\n\n  // public or external?\n  function vote(string memory cat) public {\n    votes.push(Vote(cat, msg.sender));\n    //votes[msg.sender] = Category(cat);\n    //catVotes.push(msg.sender);\n\n    voteCount++;\n\n    emit VotedCategory(cat);\n  }\n\n  function checkVoted(address sender) public view returns (bool) {\n    for (uint i=0; i < votes.length; i++) {\n      if (votes[i].voter == sender) {\n        return true;\n      }\n    }\n    return false;\n  }\n\n  function compareStrings(string memory a, string memory b) public pure returns (bool) {\n      return (keccak256(abi.encodePacked((a))) == keccak256(abi.encodePacked((b))));\n  }\n\n  function getVoteCountByCat(string memory cat) public view returns (uint) {\n    uint count = 0;\n    for (uint i=0; i < votes.length; i++) {\n      if (compareStrings(votes[i].category, cat)) {\n      //if (votes[i].category == cat) {\n        count++;\n      }\n    }\n    return count;\n  }\n\n  function createCharity(address payable rep, string calldata name, string calldata category, string calldata desc) external {\n    charities.push(Charity(rep, name, category, desc));\n\n    emit CharityCreated(rep, name, category, desc);\n  }\n\n  function donate() payable public {\n    funds += msg.value;\n    msg.sender.transfer(msg.value);\n  }\n\n  function transfer(string memory charity, uint amount) public payable returns (bool) {\n    address payable rep;\n\n    for (uint i=0; i < charities.length; i++) {\n      if (compareStrings(charities[i].name,charity)) {\n        rep = charities[i].rep;\n      } else {\n        return false;\n      }\n    }\n\n    require(msg.sender != rep);\n    if(rep.send(amount)) {\n        emit donationSentToTarget(rep);\n        emit donationReceived(msg.sender, amount);\n        return true;\n    }\n    return false;\n  }\n\n  function allocateFunds() public {\n    uint counter = 0;\n    uint share = 0;\n    for (uint i=0; i < charities.length; i++) {\n      counter = 0;\n      for (uint j=0; j < votes.length; j++) {\n        if (compareStrings(votes[j].category,charities[i].category)) {\n          counter++;\n        }\n      }\n      if (counter==0) {\n        share = 1;\n      } else {\n        share = counter / votes.length;\n      }\n      transfer(charities[i].name, share*funds);\n    }\n    funds = 0;\n  }\n}\n",
  "sourcePath": "/Users/ubayd/Documents/personal_git/polygon_easya_hackathon/src/contracts/SimpleContract.sol",
  "compiler": {
    "name": "solc",
    "version": "0.5.16+commit.9c3226ce.Emscripten.clang"
  },
  "schemaVersion": "3.4.10",
  "updatedAt": "2022-10-23T07:26:45.887Z",
  "networkType": "ethereum",
  "devdoc": {
    "methods": {}
  },
  "userdoc": {
    "methods": {}
  }
}